{
    "_format": "hh-sol-artifact-1",
    "contractName": "MisBlockBase",
    "sourceName": "contracts/MisBlockBase.sol",
    "abi": [
        {
            "inputs": [],
            "stateMutability": "nonpayable",
            "type": "constructor"
        },
        {
            "anonymous": false,
            "inputs": [
                {
                    "indexed": true,
                    "internalType": "address",
                    "name": "owner",
                    "type": "address"
                },
                {
                    "indexed": true,
                    "internalType": "address",
                    "name": "spender",
                    "type": "address"
                },
                {
                    "indexed": false,
                    "internalType": "uint256",
                    "name": "value",
                    "type": "uint256"
                }
            ],
            "name": "Approval",
            "type": "event"
        },
        {
            "anonymous": false,
            "inputs": [
                {
                    "indexed": false,
                    "internalType": "address",
                    "name": "account",
                    "type": "address"
                },
                {
                    "indexed": false,
                    "internalType": "uint256",
                    "name": "amount",
                    "type": "uint256"
                }
            ],
            "name": "BurnFinished",
            "type": "event"
        },
        {
            "anonymous": false,
            "inputs": [
                {
                    "indexed": false,
                    "internalType": "address",
                    "name": "account",
                    "type": "address"
                },
                {
                    "indexed": false,
                    "internalType": "uint256",
                    "name": "amount",
                    "type": "uint256"
                }
            ],
            "name": "MintFinished",
            "type": "event"
        },
        {
            "anonymous": false,
            "inputs": [
                {
                    "indexed": true,
                    "internalType": "address",
                    "name": "previousOwner",
                    "type": "address"
                },
                {
                    "indexed": true,
                    "internalType": "address",
                    "name": "newOwner",
                    "type": "address"
                }
            ],
            "name": "OwnershipTransferred",
            "type": "event"
        },
        {
            "anonymous": false,
            "inputs": [
                {
                    "indexed": true,
                    "internalType": "address",
                    "name": "from",
                    "type": "address"
                },
                {
                    "indexed": true,
                    "internalType": "address",
                    "name": "to",
                    "type": "address"
                },
                {
                    "indexed": false,
                    "internalType": "uint256",
                    "name": "value",
                    "type": "uint256"
                }
            ],
            "name": "Transfer",
            "type": "event"
        },
        {
            "inputs": [
                {
                    "internalType": "address",
                    "name": "owner",
                    "type": "address"
                },
                {
                    "internalType": "address",
                    "name": "spender",
                    "type": "address"
                }
            ],
            "name": "allowance",
            "outputs": [
                {
                    "internalType": "uint256",
                    "name": "",
                    "type": "uint256"
                }
            ],
            "stateMutability": "view",
            "type": "function"
        },
        {
            "inputs": [
                {
                    "internalType": "address",
                    "name": "spender",
                    "type": "address"
                },
                {
                    "internalType": "uint256",
                    "name": "amount",
                    "type": "uint256"
                }
            ],
            "name": "approve",
            "outputs": [
                {
                    "internalType": "bool",
                    "name": "",
                    "type": "bool"
                }
            ],
            "stateMutability": "nonpayable",
            "type": "function"
        },
        {
            "inputs": [
                {
                    "internalType": "address",
                    "name": "account",
                    "type": "address"
                }
            ],
            "name": "balanceOf",
            "outputs": [
                {
                    "internalType": "uint256",
                    "name": "",
                    "type": "uint256"
                }
            ],
            "stateMutability": "view",
            "type": "function"
        },
        {
            "inputs": [
                {
                    "internalType": "address",
                    "name": "_account",
                    "type": "address"
                },
                {
                    "internalType": "uint256",
                    "name": "_amount",
                    "type": "uint256"
                }
            ],
            "name": "burn",
            "outputs": [],
            "stateMutability": "nonpayable",
            "type": "function"
        },
        {
            "inputs": [],
            "name": "decimals",
            "outputs": [
                {
                    "internalType": "uint8",
                    "name": "",
                    "type": "uint8"
                }
            ],
            "stateMutability": "view",
            "type": "function"
        },
        {
            "inputs": [
                {
                    "internalType": "address",
                    "name": "spender",
                    "type": "address"
                },
                {
                    "internalType": "uint256",
                    "name": "subtractedValue",
                    "type": "uint256"
                }
            ],
            "name": "decreaseAllowance",
            "outputs": [
                {
                    "internalType": "bool",
                    "name": "",
                    "type": "bool"
                }
            ],
            "stateMutability": "nonpayable",
            "type": "function"
        },
        {
            "inputs": [
                {
                    "internalType": "address",
                    "name": "spender",
                    "type": "address"
                },
                {
                    "internalType": "uint256",
                    "name": "addedValue",
                    "type": "uint256"
                }
            ],
            "name": "increaseAllowance",
            "outputs": [
                {
                    "internalType": "bool",
                    "name": "",
                    "type": "bool"
                }
            ],
            "stateMutability": "nonpayable",
            "type": "function"
        },
        {
            "inputs": [
                {
                    "internalType": "address",
                    "name": "_account",
                    "type": "address"
                },
                {
                    "internalType": "uint256",
                    "name": "_amount",
                    "type": "uint256"
                }
            ],
            "name": "mint",
            "outputs": [],
            "stateMutability": "nonpayable",
            "type": "function"
        },
        {
            "inputs": [],
            "name": "name",
            "outputs": [
                {
                    "internalType": "string",
                    "name": "",
                    "type": "string"
                }
            ],
            "stateMutability": "view",
            "type": "function"
        },
        {
            "inputs": [],
            "name": "owner",
            "outputs": [
                {
                    "internalType": "address",
                    "name": "",
                    "type": "address"
                }
            ],
            "stateMutability": "view",
            "type": "function"
        },
        {
            "inputs": [],
            "name": "renounceOwnership",
            "outputs": [],
            "stateMutability": "nonpayable",
            "type": "function"
        },
        {
            "inputs": [],
            "name": "symbol",
            "outputs": [
                {
                    "internalType": "string",
                    "name": "",
                    "type": "string"
                }
            ],
            "stateMutability": "view",
            "type": "function"
        },
        {
            "inputs": [],
            "name": "totalSupply",
            "outputs": [
                {
                    "internalType": "uint256",
                    "name": "",
                    "type": "uint256"
                }
            ],
            "stateMutability": "view",
            "type": "function"
        },
        {
            "inputs": [
                {
                    "internalType": "address",
                    "name": "recipient",
                    "type": "address"
                },
                {
                    "internalType": "uint256",
                    "name": "amount",
                    "type": "uint256"
                }
            ],
            "name": "transfer",
            "outputs": [
                {
                    "internalType": "bool",
                    "name": "",
                    "type": "bool"
                }
            ],
            "stateMutability": "nonpayable",
            "type": "function"
        },
        {
            "inputs": [
                {
                    "internalType": "address",
                    "name": "sender",
                    "type": "address"
                },
                {
                    "internalType": "address",
                    "name": "recipient",
                    "type": "address"
                },
                {
                    "internalType": "uint256",
                    "name": "amount",
                    "type": "uint256"
                }
            ],
            "name": "transferFrom",
            "outputs": [
                {
                    "internalType": "bool",
                    "name": "",
                    "type": "bool"
                }
            ],
            "stateMutability": "nonpayable",
            "type": "function"
        },
        {
            "inputs": [
                {
                    "internalType": "address",
                    "name": "newOwner",
                    "type": "address"
                }
            ],
            "name": "transferOwnership",
            "outputs": [],
            "stateMutability": "nonpayable",
            "type": "function"
        }
    ],
    "bytecode": "0x60806040523480156200001157600080fd5b5060408051808201825260078152662aa724a1a7a4a760c91b6020808301918252835180850190945260058452642aa724a1a760d91b9084015281519192916200005e91600391620001ff565b50805162000074906004906020840190620001ff565b505050620000916200008b620000c160201b60201c565b620000c5565b620000bb33620000a46012600a62000309565b620000b59064e8d4a51000620003d4565b62000117565b62000449565b3390565b600580546001600160a01b038381166001600160a01b0319831681179093556040519116919082907f8be0079c531659141344cd1fd0a4f28419497f9722a3daafe3b4186f6b6457e090600090a35050565b6001600160a01b038216620001725760405162461bcd60e51b815260206004820152601f60248201527f45524332303a206d696e7420746f20746865207a65726f206164647265737300604482015260640160405180910390fd5b8060026000828254620001869190620002a5565b90915550506001600160a01b03821660009081526020819052604081208054839290620001b5908490620002a5565b90915550506040518181526001600160a01b038316906000907fddf252ad1be2c89b69c2b068fc378daa952ba7f163c4a11628f55a4df523b3ef9060200160405180910390a35050565b8280546200020d90620003f6565b90600052602060002090601f0160209004810192826200023157600085556200027c565b82601f106200024c57805160ff19168380011785556200027c565b828001600101855582156200027c579182015b828111156200027c5782518255916020019190600101906200025f565b506200028a9291506200028e565b5090565b5b808211156200028a57600081556001016200028f565b60008219821115620002bb57620002bb62000433565b500190565b600181815b8085111562000301578160001904821115620002e557620002e562000433565b80851615620002f357918102915b93841c9390800290620002c5565b509250929050565b60006200031783836200031e565b9392505050565b6000826200032f57506001620003ce565b816200033e57506000620003ce565b8160018114620003575760028114620003625762000382565b6001915050620003ce565b60ff84111562000376576200037662000433565b50506001821b620003ce565b5060208310610133831016604e8410600b8410161715620003a7575081810a620003ce565b620003b38383620002c0565b8060001904821115620003ca57620003ca62000433565b0290505b92915050565b6000816000190483118215151615620003f157620003f162000433565b500290565b600181811c908216806200040b57607f821691505b602082108114156200042d57634e487b7160e01b600052602260045260246000fd5b50919050565b634e487b7160e01b600052601160045260246000fd5b610d8380620004596000396000f3fe608060405234801561001057600080fd5b50600436106100d05760003560e01c806306fdde03146100d5578063095ea7b3146100f357806318160ddd1461011657806323b872dd14610128578063313ce5671461013b578063395093511461014a57806340c10f191461015d57806370a0823114610172578063715018a61461019b5780638da5cb5b146101a357806395d89b41146101c35780639dc29fac146101cb578063a457c2d7146101de578063a9059cbb146101f1578063dd62ed3e14610204578063f2fde38b1461023d575b600080fd5b6100dd610250565b6040516100ea9190610c25565b60405180910390f35b610106610101366004610be3565b6102e2565b60405190151581526020016100ea565b6002545b6040519081526020016100ea565b610106610136366004610ba8565b6102f8565b604051601281526020016100ea565b610106610158366004610be3565b6103a7565b61017061016b366004610be3565b6103e3565b005b61011a610180366004610b55565b6001600160a01b031660009081526020819052604090205490565b61017061042a565b6101ab610465565b6040516001600160a01b0390911681526020016100ea565b6100dd610474565b6101706101d9366004610be3565b610483565b6101066101ec366004610be3565b6104be565b6101066101ff366004610be3565b610557565b61011a610212366004610b76565b6001600160a01b03918216600090815260016020908152604080832093909416825291909152205490565b61017061024b366004610b55565b610564565b60606003805461025f90610cdc565b80601f016020809104026020016040519081016040528092919081815260200182805461028b90610cdc565b80156102d85780601f106102ad576101008083540402835291602001916102d8565b820191906000526020600020905b8154815290600101906020018083116102bb57829003601f168201915b5050505050905090565b60006102ef338484610604565b50600192915050565b6000610305848484610729565b6001600160a01b03841660009081526001602090815260408083203384529091529020548281101561038f5760405162461bcd60e51b815260206004820152602860248201527f45524332303a207472616e7366657220616d6f756e74206578636565647320616044820152676c6c6f77616e636560c01b60648201526084015b60405180910390fd5b61039c8533858403610604565b506001949350505050565b3360008181526001602090815260408083206001600160a01b038716845290915281205490916102ef9185906103de908690610cad565b610604565b6103ed82826108e6565b7fdc9ea6c67755d8cfd18b0ce6db23ba176f70f45752e56c3c49bbcd4aafdaae8a828260405161041e929190610c0c565b60405180910390a15050565b33610433610465565b6001600160a01b0316146104595760405162461bcd60e51b815260040161038690610c78565b61046360006109b3565b565b6005546001600160a01b031690565b60606004805461025f90610cdc565b61048d8282610a05565b7f182c1f44d92b0ecfdb6ba9dd3d81a250efb15e8d7a08dec83d996a9afd7f28cf828260405161041e929190610c0c565b3360009081526001602090815260408083206001600160a01b0386168452909152812054828110156105405760405162461bcd60e51b815260206004820152602560248201527f45524332303a2064656372656173656420616c6c6f77616e63652062656c6f77604482015264207a65726f60d81b6064820152608401610386565b61054d3385858403610604565b5060019392505050565b60006102ef338484610729565b3361056d610465565b6001600160a01b0316146105935760405162461bcd60e51b815260040161038690610c78565b6001600160a01b0381166105f85760405162461bcd60e51b815260206004820152602660248201527f4f776e61626c653a206e6577206f776e657220697320746865207a65726f206160448201526564647265737360d01b6064820152608401610386565b610601816109b3565b50565b6001600160a01b0383166106665760405162461bcd60e51b8152602060048201526024808201527f45524332303a20617070726f76652066726f6d20746865207a65726f206164646044820152637265737360e01b6064820152608401610386565b6001600160a01b0382166106c75760405162461bcd60e51b815260206004820152602260248201527f45524332303a20617070726f766520746f20746865207a65726f206164647265604482015261737360f01b6064820152608401610386565b6001600160a01b0383811660008181526001602090815260408083209487168084529482529182902085905590518481527f8c5be1e5ebec7d5bd14f71427d1e84f3dd0314c0f7b2291e5b200ac8c7c3b92591015b60405180910390a3505050565b6001600160a01b03831661078d5760405162461bcd60e51b815260206004820152602560248201527f45524332303a207472616e736665722066726f6d20746865207a65726f206164604482015264647265737360d81b6064820152608401610386565b6001600160a01b0382166107ef5760405162461bcd60e51b815260206004820152602360248201527f45524332303a207472616e7366657220746f20746865207a65726f206164647260448201526265737360e81b6064820152608401610386565b6001600160a01b038316600090815260208190526040902054818110156108675760405162461bcd60e51b815260206004820152602660248201527f45524332303a207472616e7366657220616d6f756e7420657863656564732062604482015265616c616e636560d01b6064820152608401610386565b6001600160a01b0380851660009081526020819052604080822085850390559185168152908120805484929061089e908490610cad565b92505081905550826001600160a01b0316846001600160a01b0316600080516020610d2e833981519152846040516108d891815260200190565b60405180910390a350505050565b6001600160a01b03821661093c5760405162461bcd60e51b815260206004820152601f60248201527f45524332303a206d696e7420746f20746865207a65726f2061646472657373006044820152606401610386565b806002600082825461094e9190610cad565b90915550506001600160a01b0382166000908152602081905260408120805483929061097b908490610cad565b90915550506040518181526001600160a01b03831690600090600080516020610d2e8339815191529060200160405180910390a35050565b600580546001600160a01b038381166001600160a01b0319831681179093556040519116919082907f8be0079c531659141344cd1fd0a4f28419497f9722a3daafe3b4186f6b6457e090600090a35050565b6001600160a01b038216610a655760405162461bcd60e51b815260206004820152602160248201527f45524332303a206275726e2066726f6d20746865207a65726f206164647265736044820152607360f81b6064820152608401610386565b6001600160a01b03821660009081526020819052604090205481811015610ad95760405162461bcd60e51b815260206004820152602260248201527f45524332303a206275726e20616d6f756e7420657863656564732062616c616e604482015261636560f01b6064820152608401610386565b6001600160a01b0383166000908152602081905260408120838303905560028054849290610b08908490610cc5565b90915550506040518281526000906001600160a01b03851690600080516020610d2e8339815191529060200161071c565b80356001600160a01b0381168114610b5057600080fd5b919050565b600060208284031215610b66578081fd5b610b6f82610b39565b9392505050565b60008060408385031215610b88578081fd5b610b9183610b39565b9150610b9f60208401610b39565b90509250929050565b600080600060608486031215610bbc578081fd5b610bc584610b39565b9250610bd360208501610b39565b9150604084013590509250925092565b60008060408385031215610bf5578182fd5b610bfe83610b39565b946020939093013593505050565b6001600160a01b03929092168252602082015260400190565b6000602080835283518082850152825b81811015610c5157858101830151858201604001528201610c35565b81811115610c625783604083870101525b50601f01601f1916929092016040019392505050565b6020808252818101527f4f776e61626c653a2063616c6c6572206973206e6f7420746865206f776e6572604082015260600190565b60008219821115610cc057610cc0610d17565b500190565b600082821015610cd757610cd7610d17565b500390565b600181811c90821680610cf057607f821691505b60208210811415610d1157634e487b7160e01b600052602260045260246000fd5b50919050565b634e487b7160e01b600052601160045260246000fdfeddf252ad1be2c89b69c2b068fc378daa952ba7f163c4a11628f55a4df523b3efa26469706673582212205fa30741e24e741e1c53cf47f755de1fad26a01610959bdfbb022a5a7f54cc4a64736f6c63430008040033",
    "linkReferences": {},
    "deployedLinkReferences": {}
}